:020000040000FA
:10000000B031B12BFF3F29003E08003A03193D28CB
:10001000F1017108073C031C2A282A00DC1B132865
:1000200021008D13152821008D170630FD00FD0BD2
:10003000172800000D170630FD00FD0B1D280000DD
:100040000D130630FD00FD0B232800002A00DC35CF
:10005000F10A092821008D170630FD00FD0B2E281E
:1000600000000D170630FD00FD0B342800000D13B5
:100070000630FD00FD0B3A280000080029003E086C
:10008000003A03195C2821000D170630FD00FD0B16
:10009000472800008D170630FD00FD0B4D2800009D
:1000A0008D130630FD00FD0B532800000D130630A4
:1000B000FD00FD0B592800000800290039082A001E
:1000C0005807DB003E20290037082A00DC00032007
:1000D0002A00DC0103202A005708B03EDC00032080
:1000E0002A005B080F3C031C79285B08D900DA0161
:1000F0008A285B08F200F236F236F236F2367208DF
:10010000DA007208F000F035F035F035F03570089F
:100110005B02D9005908DC0003202A005A08103E6F
:10012000DC0003203E20290037082A00DC000320E1
:1001300040302A00DC00032008002000F801F9010B
:100140001030FC00710DF80DF90D7408F8027508F7
:10015000031C750FF9020318B4287408F807750812
:100160000318750FF9070310F00DF10DFC0BA22811
:10017000080020007008F100F0010830FC00710850
:10018000F40C0318C728FC0BC028F101003403103D
:10019000CC28F40C0318F107F10CF00CFC0BC92867
:1001A000080029003E08003A0319E92821008D13B0
:1001B0000630FD00FD0BDA2800000D170630FD00AB
:1001C000FD0BE02800008D170630FD00FD0BE62832
:1001D00000000800FA1FF21300300800FB14FB1F98
:1001E000F828FF30F300F200F100F000FA0DF20CF5
:1001F000FF3008003E20290037082A00DC000320D9
:1002000040302A00DC0003202A004E08D7004D08A9
:10021000D8005D202A00D201510852020318C029DB
:1002200052084F0784000030503D85000008003A16
:10023000031D1C29D401252952084F0784000030D2
:10024000503D850020300002D400D3015308043C07
:10025000031CB8295408F0000530F400B9202A0026
:100260005308F0070030F13D003070078400B830CB
:10027000713D85000008D5004E08023A013003198F
:100280000030F1004E08043A013003190030F0004C
:100290007008F1054E08063A013003190030F000ED
:1002A0007108F00503197D29D5195829D613592944
:1002B000D617D5195D2956135E2956175519622987
:1002C000D6126329D616551967295612682956166B
:1002D000D5186C29D6116D29D615D5187129561146
:1002E0007229561555187629D6107729D61455181F
:1002F0007B2956107C2956149D2955198129D6131E
:100300008229D61755198629561387295617D518C5
:100310008B29D6128C29D616D518902956129129D8
:10032000561655189529D6119629D61555189A2975
:1003300056119B295615D61056105608DC0003207E
:1003400029003E08043A0130031D0030F1003E0848
:10035000053A0130031D0030F0007108F004031964
:10036000B5292A005608DC0003202A00D30A2629D2
:10037000DC0103202A00DC0103202A00D20A0C2918
:100380004E0AD7004D08D8005D202A00D20151083E
:1003900052020318832A52084F0784000030503D50
:1003A00085000008003A031DD729D401E02952082E
:1003B0004F0784000030503D850020300002D400FB
:1003C000D3015308043C031C7B2A5408F000053079
:1003D000F400B9202A005308F0070030F13D003046
:1003E00070078400B830713D85000008D5004E08C4
:1003F000023A013003190030F1004E08043A01308E
:1004000003190030F0007008F1054E08063A01307B
:1004100003190030F0007108F0050319382AD51BC4
:10042000132AD613142AD617D51B182A5613192A9D
:100430005617551B1D2AD6121E2AD616551B222AC0
:100440005612232A5616D51A272AD611282AD61527
:10045000D51A2C2A56112D2A5615551A312AD6107E
:10046000322AD614551A362A5610372A5614602ABC
:10047000551B3C2AD6133D2AD617551B412A561325
:10048000422A5617D51A462AD612472AD616D51A00
:100490004B2A56124C2A5616551A502AD611512A52
:1004A000D615551A552A5611562A5615D5195A2AAF
:1004B000D6105B2AD614D5195F2A5610602A561416
:1004C0005608DC00032029003E08043A0130031DD1
:1004D0000030F1003E08053A0130031D0030F00005
:1004E0007108F0040319782A2A005608DC0003205A
:1004F0002A00D30AE129DC0103202A00DC010320C1
:100500002A00D20AC729D12008002A00CE012900DA
:10051000BF010130B8002A004D08CE00CE35CE35DF
:10052000CE35CE35290041080319992A08302A0012
:10053000CE07290038080319A02A04302A00CE0764
:1005400029003F080319A72A02302A00CE072900F4
:1005500040080319AD2A2A00CE0A3E202900370898
:100560002A00DC0003202A004E08DC000320D120F2
:100570000630FC003030FD00FD0BBC2AFC0BBC2A11
:10058000000004302A00CE023E20290037082A004D
:10059000DC0003202A004E08DC000320D1200630B6
:1005A000FC003030FD00FD0BD32AFC0BD32A0000E9
:1005B0000800F201F101F001F801F3010030080038
:1005C0007B15FB1FEA2A0130F300F201F101F00173
:1005D000FA0DF20CFF3008002A00D101053051025B
:1005E0000318FC2A51084F0786000030503D870051
:1005F00020308100D10AEE2A51084F0786000030D2
:10060000503D87008101D10351084F07D2000030CF
:10061000503DD3000A30F400F5014D08F0004E08BB
:10062000F1009D207808F0007908F1003030F007E3
:100630002A005208860053088700700881000A309B
:10064000F400F5014D08F0004E08F1009D207008FF
:100650002A00CD007108CE0000307106031D322B38
:1006600000307006031D352B372BD103042B0800F7
:100670001D30FD00FD0B3A2B0800FB09FA09F909B2
:10068000F809F80A0319F90A0319FA0A0319FB0A07
:1006900008002A00C901CA014308CB004408CC0065
:1006A00080304406F00080307002031D592B00306A
:1006B00043020318672B0130C9000030CA00430809
:1006C000003CCB004408031C013ECC01CC024B088B
:1006D000CD004C08CE004508CF004608D000EC22E3
:1006E0000630C7000030C8004808003C031D7A2BC4
:1006F0004708003C0318952B470845078600480823
:10070000463D870001304702F0000030483BF100D1
:100710007008450784007108463D85000008810087
:100720000130C7020030C83B742B450886004608DC
:1007300087002030810049084A040319BB2BC701F8
:10074000C8014708450784004808463D8500000861
:10075000203A031DAF2BC70A0319C80AA12B013089
:10076000C7020030C83B4708450786004808463D99
:1007700087002D308100080020002230FC00F801A5
:10078000F901FA01FB01FC030319F12B0310FB0C27
:10079000FA0CF90CF80CF30CF20CF10CF00C031C35
:1007A000C32BFC030319E32B7408F807750803181F
:1007B000750FF90776080318760FFA0777080318FC
:1007C000770FFB07C72B7408F80775080318750F18
:1007D000F90776080318760FFA0777080318770FDA
:1007E000FB0708007408F8027508031C750FF9026E
:1007F0007608031C760FFA027708031C770FFB02BA
:10080000F30D0730FC00730DF80DF90DFA0DFB0D1B
:100810007408731C192CF8027508031C750FF90273
:100820007608031C760FFA027708031C770FFB0289
:10083000262CF80775080318750FF90776080318B2
:10084000760FFA0777080318770FFB07F30DFC0BF9
:10085000032C720DF80DF90DFA0DFB0D7408731CC5
:100860003F2CF8027508031C750FF9027608031C6B
:10087000760FFA027708031C770FFB024C2CF8075F
:1008800075080318750FF90776080318760FFA072D
:1008900077080318770FFB07F20D0730FC00720D85
:1008A000F80DF90DFA0DFB0D7408721C652CF80299
:1008B0007508031C750FF9027608031C760FFA02FF
:1008C0007708031C770FFB02722CF80775080318D2
:1008D000750FF90776080318760FFA0777080318DB
:1008E000770FFB07F20DFC0B4F2C710DF80DF90D76
:1008F000FA0DFB0D7408721C8B2CF8027508031C92
:10090000750FF9027608031C760FFA027708031CAC
:10091000770FFB02982CF80775080318750FF90775
:1009200076080318760FFA0777080318770FFB0786
:10093000F10D0730FC00710DF80DF90DFA0DFB0DEE
:100940007408711CB12CF8027508031C750FF902AC
:100950007608031C760FFA027708031C770FFB0258
:10096000BE2CF80775080318750FF90776080318E9
:10097000760FFA0777080318770FFB07F10DFC0BCA
:100980009B2C700DF80DF90DFA0DFB0D7408711C00
:10099000D72CF8027508031C750FF9027608031CA2
:1009A000760FFA027708031C770FFB02E42CF80796
:1009B00075080318750FF90776080318760FFA07FC
:1009C00077080318770FFB07F00D0730FC00700D58
:1009D000F80DF90DFA0DFB0D7408701CFD2CF802D2
:1009E0007508031C750FF9027608031C760FFA02CE
:1009F0007708031C770FFB020A2DF8077508031808
:100A0000750FF90776080318760FFA0777080318A9
:100A1000770FFB07F00DFC0BE72C70181D2D7408E9
:100A2000F80775080318750FF90776080318760F8D
:100A3000FA0777080318770FFB07080029003E081C
:100A4000043A0130031D0030F1003E08053A013040
:100A5000031D0030F0007108F00403193C2D2A003A
:100A60004408CD004308CE004508CF004608D0001A
:100A70004708D100FA20962D29003E08023A01309D
:100A8000031D0030F1003E08033A0130031D003021
:100A9000F0007108F0040319622D0730F0002A00FD
:100AA0004408F400B920043070072A00CD00430840
:100AB000CE00CE354508CF004608D0004708D1000B
:100AC000FA20962D2900C0012A004308F000F035D5
:100AD000F0357008083ECD0085222A004408CD007C
:100AE000852201302900C0002A00C80147084802B9
:100AF0000318962D4808450784000030463D8500C0
:100B00000008F1007108CD00CD36CD36CD36CD369A
:100B100085222A004808450784000030463D8500AC
:100B20000008CD0085222A00C80A762D08008330EF
:100B300021009D052A004308F000F035F0357008CB
:100B400021009D0438239D149D1CA72DA42D1C0855
:100B5000F100F0011B08F0040030F104080003303C
:100B6000FC009530FD00FD0BB32DFC0BB32D0800F0
:100B7000FB15FF3008007C18F12DFC18C22D7C19E4
:100B8000102EBB2DA1017208031DE22D7108F20089
:100B90007008F1007808F000F801A1157208031D33
:100BA000E22D7108F2007008F100F001A111211688
:100BB0007208031DE22D7108F200F101A1157208FF
:100BC0000319042E2108F302031D031C082E031031
:100BD000F21BF12DF80DF00DF10DF20DF30BE82DD8
:100BE000082E7B1B701C0C2EF81F0C2EF00A03190C
:100BF000F10A0319F20A031D0C2EF20CF10CF00C91
:100C0000F30A0319102E0C2E0130FC00D922132EEA
:100C10000230FC00E022132E0430FC00EA20132EE8
:100C20000830FC00EE2000000800A1017208031D3E
:100C30002A2E7108F2007008F100F001A115720867
:100C4000031D2A2E7108F200F101A111211672086C
:100C50000319382E2108F302031D031C3C2E031038
:100C6000F21B402EF00DF10DF20DF30B302E3C2E49
:100C70000130FC00D922432E0230FC00E022432E3A
:100C80000430FC00EA2008007B14FB1F4F2EF20109
:100C9000FA1FFF30F200F100F000FA0DF20CFF3005
:100CA0000800200072087606A100F801F901730817
:100CB0007702031C732E7708FD007308F7007D0888
:100CC000F3007608FD007208F6007D08F200750852
:100CD000FD007108F5007D08F1007408FD00700842
:100CE000F4007D08F00077080319EC2E7208FA0072
:100CF000F217F61777087302F7000319A62E0830CB
:100D00007702031C9C2EF7007408F9007508F400A4
:100D10007608F500F60108307702031C9C2EF700D8
:100D20007408F9007508F400F50108307702031C17
:100D30009C2E7A08F200EC2E77080319A62E0310D9
:100D4000F60CF50CF40CF90CF70B9F2EA11FB32E2B
:100D5000F909F409F509F609F90A0319F40A03195E
:100D6000F50A0319F60A7908F80774080318740FCE
:100D7000F00775080318750FF10776080318760F4A
:100D8000F207A11BCC2E031CDC2EF20CF10CF00C94
:100D9000F80CF30FDC2EE82E0318E02EF809F0090A
:100DA000F109F209F80A0319F00A0319F10A031903
:100DB000F20A8030FA06E42E0130FC00BB25EE2E4C
:100DC0000230FC00BB25EE2E0430FC001526EE2E72
:100DD0000830FC00EE20EE2E0030FC000000080081
:100DE0002A00C2013E08F1000130F0007108031929
:100DF000FC2EF035FF3EF72E7008C1003C08840041
:100E00003D08850070080005F10071080130031DE0
:100E10000030F0004008F0060319282F3F08003C7E
:100E20000318162FAF25AF25BF030E2F3C088400F3
:100E30003D08850041080005F10071080130031DDF
:100E40000030F0004008F0060319282FFF30C200E0
:100E50004208F0000800710DF80DF90D7408F80251
:100E60007508031C750FF902F00DF10D0F30FC0031
:100E7000710DF80DF90D7408701C442FF8027508F7
:100E8000031C750FF902492FF80775080318750F31
:100E9000F907F00DF10DFC0B382F7018552F740861
:100EA000F80775080318750FF907000008002000FF
:100EB000FB017308031D77080319AD2F720876062E
:100EC000FA007708F3077E30031C6A2FF302031839
:100ED000B02F6D2FF302031CB32F7208F8007108B6
:100EE000FC007008FD00F817F6170310F201F1017D
:100EF000F0011830A1007D1C872F7408F0077508D9
:100F00000318750FF10776080318760FF207F20C35
:100F1000F10CF00CF80CFC0CFD0C0310A10B7B2F5A
:100F2000F21B972FF80DF00DF10DF20DF3037B1B63
:100F3000701CA92FF81FA92FF00A0319F10A031931
:100F4000F20A031DA92FF20CF10CF00CF30A03199D
:100F5000B02FFA1FF2130030B52F0130D922B52F70
:100F60000230EE20B52F0430E022000008002000FF
:100F70007008F8007108F0007208F1007308F200C0
:100F8000F301FB01FC019E30F300FA01F21FD42FA4
:100F9000F809F009F109F209F80A0319F00A03192E
:100FA000F10A0319F20AFA170230FC00BB25080007
:100FB00020007008F800FB01FC019E30F300FA01EC
:100FC000F201F101F0010230FC00BB25080029000C
:100FD0006F18ED2F22000E10EF2F22000E142900A3
:100FE0004C082A00BC0029004D082A00BD008831A9
:100FF0006F2580310800543455344E344534003464
:1010000064002800DD01DE0126004A1C0C282800AF
:101010006308DD076408DE3D2600CA1C142828008A
:101020006108DD076208DE3D26004A1D1C282800F5
:101030005F08DD076008DE3D2600CA1D2428280061
:101040005908DD075A08DE3D26004A1E2C282800D4
:101050005708DD075808DE3D2600CA1E3428280040
:101060005508DD075608DE3D26004A1F3C282800AB
:101070005B08DD075C08DE3D28008030273AF00081
:1010800080305E067002031D47285D080F3C031880
:10109000692832305D07F00000305E3DF1007008D5
:1010A000DD007108DE0070082A00C3007108C4006A
:1010B000AF30C5000430C600803149238831290093
:1010C0003008A8003108A9002E30AA003208AB0071
:1010D000962828005D082A00C30028005E082A0020
:1010E000C400AF30C5000430C600803149238831C8
:1010F00029003108203A031980283108A8008228E5
:101100003030A8002E30A9003208203A03198B286D
:101110003208AA008D283030AA003308203A03197B
:1011200094283308AB0096283030AB004E08043AC0
:101130000130031D0030F1004E08053A0130031D57
:101140000030F0007108F0040319DC2826004C0878
:10115000013A031DAF2804302A00BC00B2282A003F
:101160000630BC003C08C3001030C4002830C50065
:101170000030C6000230C70080311E2588312A00A9
:101180003C08C3005830C4002530C5000030C600FC
:101190000230C70080311E2588312A003C08C30078
:1011A0002830C400A830C5000430C6000430C70091
:1011B00080311E2588315B2929004E08023A013012
:1011C000031D0030F1004E08033A0130031D0030CA
:1011D000F0007108F0040319222926004C08013A96
:1011E000031DF5282A00BC01F8282A000130BC00A4
:1011F0003C08C3000930C4002230C5000030C600DE
:101200000230C70080311E2588312A003C08C30007
:101210000F30C4004030C5000030C6000230C700A7
:1012200080311E2588312A003C08C3000B30C400E1
:10123000A830C5000430C6000430C70080311E2528
:1012400088315B2929004E08013A031D5B292600DD
:101250004C08013A031D2F292A00BC0132292A001B
:101260000130BC003C08C3000930C4005430C50044
:101270000030C6000230C70080311E2588312A00A8
:101280003C08C3000F30C4005230C5000030C60017
:101290000130C70080311E2588312A003C08C30078
:1012A0000B30C400A830C5000430C6000430C700AD
:1012B00080311E25883164002800DD01DE01260012
:1012C000491C672928006908DD076A08DE3D2600F9
:1012D000C91C6F2928006B08DD076C08DE3D26005D
:1012E000491D7A29290022082800DD072900230842
:1012F0002800DE3D2600C91D852929002008280078
:10130000DD07290021082800DE3D2600491E8D2921
:1013100028006D08DD076E08DE3D2600C91E9529F0
:1013200028006708DD076808DE3D2600491F9D2963
:1013300028006508DD076608DE3D28005D082A00F4
:10134000C30028005E082A00C400AF30C500043086
:10135000C60080314923883129003108A8003208AD
:10136000A9003308AA003408AB004E08043A013043
:10137000031D0030F1004E08053A0130031D003016
:10138000F0007108F0040319FB2926004C08013A0B
:10139000031DCE2906302A00BC00D1292A000430C2
:1013A000BC003C08C3001030C4004330C50000300E
:1013B000C6000230C70080311E2588312A003C0853
:1013C000C3005830C4004630C5000030C6000230AB
:1013D000C70080311E2588312A003C08C300283010
:1013E000C400A830C5000430C6000430C7008031F6
:1013F0001E2588317A2A29004E08023A0130031D41
:101400000030F1004E08033A0130031D0030F000B7
:101410007108F0040319412A26004C08013A031D03
:10142000152A01302A00BC00172A2A00BC013C08FA
:10143000C3000930C4004F30C5000030C600023080
:10144000C70080311E2588312A003C08C3000F30B8
:10145000C4004C30C5000030C6000230C7008031E7
:101460001E2588312A003C08C3000B30C400A83078
:10147000C5000430C6000430C70080311E25883105
:101480007A2A29004E08013A031D7A2A26004C08C0
:10149000013A031D4F2A01302A00BC00512A2A00BC
:1014A000BC013C08C3000930C4004930C50000300D
:1014B000C6000230C70080311E2588312A003C0852
:1014C000C3000F30C4006030C5000130C6000130D9
:1014D000C70080311E2588312A003C08C3000B302C
:1014E000C400A830C5000430C6000430C7008031F5
:1014F0001E258831640008002000FB01FA01F90173
:101500008030F800F10CF00C031C8F2A7408F907E6
:1015100075080318750FFA070318FB0A0310F01F6C
:10152000972A7408FA0775080318750FFB07FB0C58
:10153000FA0CF90CF80C031C822A7B08F3007A08D9
:10154000F2007908F1007808F00008002000FB01A3
:1015500073080319E22A7208FA00F2178E30F302B8
:10156000F31FE52AF309F30A08307302031CC82AA3
:10157000F300F10D7208F100F20108307302031C50
:10158000C82AF300F10DF1017308031D0310D02ADE
:1015900073080319D02A0310F20CF10CF30BCB2AB9
:1015A0007B1B711CDA2A031CDA2AF10A0319F20ADE
:1015B000F21BF12AFA1FF42AF209F109F10A0319C0
:1015C000F20AF42AF201F101F42A7B14FB1FF72A34
:1015D000F201FA1FF72AFF30F200F100FA0DF20CC7
:1015E000F72A0130FC00F92A0030FC00F92AFF300C
:1015F000FC00FC080319FF2A803144268831710859
:10160000F0007208F10008007408003A031D1D2B59
:101610007508003A031D1D2B7608003A031D1D2B8B
:101620007708003A031D1D2BFF30F000FF30F1005A
:101630007F30F200FF30F300BF2B20007708031942
:10164000AB2B73080319B02B720876068039FA00A9
:10165000F217F617A1017208F8007108FC00700873
:10166000FD007408FD027508031C750FFC02760866
:10167000031C760FF802F801FC01FD01031C472B47
:101680000310F20CF10CF00CF80C0130A1007708FB
:10169000F302031C512B7E302107F3070318B52BEF
:1016A000562B7E302107F307031CBA2B1830FA079C
:1016B000FD0DFC0DF80DF00DF10DF20DA10D7408EE
:1016C000F0027508031C750FF1027608031C760FF3
:1016D000F202760DA104211C6F2B7D147A2B740865
:1016E000F00775080318750FF10776080318760AD6
:1016F000F2077D10FA031F307A05031D582B7B1B60
:101700007D1CA12B0310F00DF10DF20DA10D74083D
:10171000F0027508031C750FF1027608031C760FA2
:10172000F202760D21040139FD070318FC0A0319A2
:10173000F80A031DA12BF80CFC0CFD0CF30A03198D
:10174000B52BFA1FF8137808F2007C08F1007D0829
:10175000F0000030BE2B01308031B8258831BE2B1F
:1017600002308031D9228831BE2B04308031EE2006
:101770008831BE2B08308031E0228831000008001B
:10178000813022009700171BC62BC32B2A00C301F0
:1017900080319725883170082A00BC007108BD008F
:1017A0008030033AF200803071067202031DDA2B9A
:1017B0007008E83C031CE12B3C08F0003D08F100F8
:1017C000202C823022009700171BE72BE42B2A00E5
:1017D000C30180319725883170082A00BC00710848
:1017E000BD008030033AF200803071067202031DA2
:1017F000FB2B7008E83C031C042C3C08F0003D085F
:10180000F100F035F10D202C833022009700171BDA
:101810000A2C072C2A00C3018031972588317008D3
:101820002A00BC007108BD007008F2007108F300C6
:10183000F235F30DF235F30D7208F0007308F10084
:101840000800813022009700171B272C242C013020
:101850002A00C30080319725883170082A00BC0017
:101860007108BD008030033AF200803071067202C8
:10187000031D3C2C7008E83C031C462C2700B301D8
:101880002A003C08F0003D08F100992C823022002B
:101890009700171B4C2C492C01302A00C3008031C3
:1018A0009725883170082A00BC007108BD0080307F
:1018B000033AF200803071067202031D612C700839
:1018C000E83C031C6D2C2700B3012A003C08F00003
:1018D0003D08F100F035F10D992C8330220097007E
:1018E000171B732C702C01302A00C3008031972500
:1018F000883170082A00BC007108BD008030033AAE
:10190000F200803071067202031D882C7008E83CDA
:1019100003188E2C01302700B300902C2700B30150
:101920002A003C08F0003D08F100F035F10DF035DB
:10193000F10D08007408003A031DB32C7508003A35
:10194000031DB32C7608003A031DB32C7708003A28
:10195000031DB32CFF30F000FF30F100FF30F20028
:101960007F30F3004F2D2000FC01F71BFC0AFD0126
:10197000FB01FA01F901F8017308720471047004A3
:101980000319482D73087706A000A01BFD09F71F57
:10199000D42CF409F509F609F709F40A0319F50A34
:1019A0000319F60A0319F70AF31FE12CF009F109EC
:1019B000F209F309F00A0319F10A0319F20A0319EB
:1019C000F30A73087704A000A01B042D8031F223D2
:1019D0008831FC1B212DFD1F482DF009F109F2096A
:1019E000F309F00A0319F10A0319F20A0319F30AB9
:1019F000F809F909FA09FB09F80A0319F90A0319A0
:101A0000FA0A0319FB0A482DF71F1B2DF31B152D8E
:101A10007308FB007208FA007108F9007008F800FA
:101A2000F301F201F101F001EB2CF301F201F101FC
:101A3000F001F00A0034F309F209F109F009FC178A
:101A4000E62CF80A0319F90A0319FA0A0319FB0A22
:101A500074087802031DEB2C75087902031DEB2C2A
:101A600076087A02031DEB2C77087B02031DEB2C12
:101A7000FB01FA01F901F801F00A0319F10A03194F
:101A8000F20A0319F30AF31FEB2CA0012016FF340E
:101A9000A0017C1C4E2D80313D238831003E080082
:101AA00020007008F8007108F000F101F201F30164
:101AB000FB01FC019630F300FA01F01F652DF809D7
:101AC000F009F80A0319F00AFA177008F10078080B
:101AD000F000F801F2018031152688310800A030AD
:101AE0002A00BE000F30BF00C001C101A030F000CD
:101AF0000F30F1000030F2000030F3003C08F40039
:101B00003D08F500F601F7018031BC2388317008EB
:101B10002A00BE007108BF007208C0007308C1002F
:101B200000307302031D9E2D00307202031D9E2D96
:101B300002307102031D9E2DB23070020318A12DD8
:101B4000D02DB230BE020230BF3B0030C03BC13BA3
:101B50000530F00070080319B32DC136C00CBF0C5E
:101B6000BE0CFF3EAB2D3E08F0003F08F1004008E0
:101B7000F2004108F3000130BE020030BF3BC03B21
:101B8000C13B70087104720473040319D02D000066
:101B90000000000000000000000000000000B32D65
:101BA000080080313E208831290037082A00DC00F7
:101BB00080310320883180302A00DC00803103200E
:101BC00088312A003C08DC008031032088318031D4
:101BD000D120883108008030F00080302A003D0696
:101BE0007002031DF52D3C08503C031CFA2DF0013A
:101BF000F101CD2E8030F00080303D067002031DD3
:101C0000032E3C08AB3C031C0A2EF430BC0700300A
:101C1000BD3DC92E8030013AF00080303D06700293
:101C2000031D142E3C08483C031C1B2EFE30BC0731
:101C30000030BD3DC92E8030023AF00080303D06B4
:101C40007002031D252E3C08463C031C2C2E183028
:101C5000BC070130BD3DC92E8030033AF000803012
:101C60003D067002031D362E3C08343C031C3D2EFD
:101C70002930BC070130BD3DC92E8030043AF00048
:101C800080303D067002031D472E3C084C3C031C6F
:101C90004E2E3630BC070130BD3DC92E8030083A8B
:101CA000F00080303D067002031D582E3C08853C34
:101CB000031C5F2EAE30BC070130BD3DC92E803005
:101CC0000C3AF00080303D067002031D692E3C087E
:101CD000FA3C031C702EE430BC070130BD3DC92E18
:101CE0008030123AF00080303D067002031D7A2EDB
:101CF0003C080F3C031C812E1230BC070230BD3D56
:101D0000C92E8030163AF00080303D067002031D67
:101D10008B2E3C08E63C031C922E8830BC07023018
:101D2000BD3DC92E80301B3AF00080303D06700268
:101D3000031D9C2E3C08EA3C031CA32EE730BC0785
:101D40000230BD3DC92E8030213AF00080303D0682
:101D50007002031DAD2E3C08363C031CB42E20300F
:101D6000BC070330BD3DC92E8030293AF0008030D9
:101D70003D067002031DBE2E3C08043C031CC52E0C
:101D80004830BC070330BD3DC92E5C30BC07033072
:101D9000BD3D3C08F0003D08F10008002000FA01BC
:101DA0007308031D7A147708031DFA147A080319BF
:101DB000192F033A0319E42E7A18E12EF61F172F74
:101DC000152FF21F152F172F72088039FA00F21302
:101DD00076088039F6137A060319F22E7A08031969
:101DE000152F172F770873020319F92E031C0D2FD7
:101DF000112F760872020319002F031C0D2F112FCB
:101E0000750871020319072F031C0D2F112F740879
:101E100070020319192F0318112FFA080319172F2D
:101E2000152FFA080319152F172F03140800031094
:101E30000800031403150800080026005108003AA2
:101E4000031D5B2F29006F18282F22008D112A2FC8
:101E500022008D152900EF18302F22000C11322F8F
:101E600022000C1529006F19382F22000D123A2F6D
:101E700022000D162900EF19402F22008C11422F4D
:101E800022008C1529006F1A482F22008D124A2F2C
:101E900022008D162900EF1A502F22008C12522F8B
:101EA00022008C1629006F1B582F22000C125A2F6B
:101EB00022000C16932F29006F18612F22008D1518
:101EC000632F22008D112900EF18692F22000C15B5
:101ED0006B2F22000C1129006F19712F22000D1693
:101EE000732F22000D122900EF19792F22008C1573
:101EF0007B2F22008C1129006F1A812F22008D1652
:101F0000832F22008D122900EF1A892F22008C16B0
:101F10008B2F22008C1229006F1B912F22000C1690
:101F2000932F22000C1229004C082A00BC00290023
:101F30004D082A00BD006F25080029003E08013C1D
:101F40000318A72FAF302A00BC00D125B92F2900D4
:101F50003E08013A031DB92F0130C100C0012A001B
:101F6000CD018031852288312A00CD018031852242
:101F7000883108000D302A00BC000030BD00BE01D1
:101F80001930BF00C0018031F02688317008290067
:101F9000EF000D302A00BC000030BD000130BE0053
:101FA0001930BF00C0018031F02688317008290047
:101FB000EF040D302A00BC000030BD000230BE002E
:101FC0001930BF00C0018031F026883129006F0828
:101FD000F0040319EE2F01302700B90008009730F4
:101FE0002900BA000530BB004330BC000530BD00FD
:101FF000F03021009E009D011D14080000340034C3
:102000007408003A031D0D287508003A031D0D28B9
:10201000FF30F0007F30F10067282000FD01F9015A
:10202000F801710870040319003471087506FA008C
:10203000FA1BFD09FB01F51F2228F409F509F40A32
:102040000319F50AF11F2928F009F109F00A03190B
:10205000F10A71087504FA00FA1B3E2880312B271B
:1020600090317B185328FD1F0034F009F109F00A64
:102070000319F10AF809F909F80A0319F90A0034F1
:10208000F51F4F28F11B4B287108F9007008F80064
:10209000F101F0013328F101F001F00A0034F109F7
:1020A000F009FB0A3028F80A0319F90A74087802C3
:1020B000031D332875087902031D3328F901F8013F
:1020C000F00A0319F10AF11F33280000FF34080059
:1020D00029006F186E2822008E13702822008E1798
:1020E0002900EF18762822008E11782822008E15FC
:1020F00029006F197E2822000E13802822000E1757
:102100002900EF19862822000E11882822000E15BA
:1021100029006F1A8E2822008E12902822008E1617
:102120002900EF1A962822008E10982822008E147B
:1021300029006F1B9E2822000E12A02822000E16D6
:1021400029004C082A00BC0029004D082A00BD00C7
:1021500088316F259031080000302A00A800003037
:10216000A9004830AA008530AB00640020005A085E
:10217000003A0130031D0030F1006F08013A0130D0
:10218000031D0030F0007008F10580302A002106A0
:10219000F00080307002031DCF280A302002013089
:1021A000031C0030F0007108F00503199529260082
:1021B0004B08003A031D912929004E08043A0130CA
:1021C000031D0030F1004E08053A0130031D0030B8
:1021D000F0007108F00403191E2927003608013A9F
:1021E000031D012904302A00C3001030C4005D30F3
:1021F000C5000030C6000830C70080311E25903170
:102200000F2904302A00C3001030C400A930C500D3
:102210000030C6000830C70080311E2590310630DE
:102220002A00C3001030C400A030C5000030C60032
:102230000830C70080311E259031912929004E08B1
:10224000023A0130031D0030F1004E08033A01301C
:10225000031D0030F0007108F00403195E29270007
:102260003608013A031D42292A00C3010930C4007F
:102270006630C5000030C6000830C70080311E251A
:1022800090314F292A00C3010930C400D630C5005F
:102290000030C6000830C70080311E259031013063
:1022A0002A00C3000930C4004F30C5000130C60009
:1022B0000830C70080311E259031912929004E0831
:1022C000013A031D912927003608013A031D76299A
:1022D0002A00C3010930C4004730C5000130C600E0
:1022E0000730C70080311E25903183292A00C301A1
:1022F0000930C4003F30C5000130C6000730C700B8
:1023000080311E25903101302A00C3000930C400FD
:102310005830C5000130C6000730C70080311E2587
:10232000903101302600CB009F2926004B08013A4E
:10233000031D9D298831002090312600CB016400C7
:102340002A00210826004E06031DA9294D082A004F
:1023500020060319A02D2A0020082600CD002A00FF
:1023600021082600CE0027003608003A031D072A60
:1023700080302A002106F00080307002031DC2293F
:1023800064302002031CE32905302007F0000030F0
:10239000213DF1007008A0007108A1007008C30081
:1023A0007108C400AF30C5000430C6008031492335
:1023B000903129003108A8003208A9003308AA008A
:1023C0005730AB00062A2A002008C3002108C400A9
:1023D000AF30C5000430C600803149239031290058
:1023E0003308203A0319F7293308A800F9293030B7
:1023F000A8002E30A9003408203A0319022A340814
:10240000AA00042A3030AA005730AB00522A80308C
:102410002A002106F0008030033A7002031D122AC0
:10242000E73020020318292A2008C3002108C4002D
:10243000AF30C5000430C6008031492390312900F7
:102440003208A8003308A9003408AA005730AB00AE
:10245000522A8030273AF00080302A00210670028C
:10246000031D342A20080F3C03183D2A0F30A0001A
:102470002730A10001302700B3002A002008C30044
:102480002108C400AF30C5000430C60080314923A4
:10249000903129003108A8003208A9003308AA00A9
:1024A0003408AB004E08043A0130031D0030F1003F
:1024B0004E08053A0130031D0030F0007108F004A9
:1024C0000319702A2A00C3014030C400A830C50097
:1024D0000430C6000430C70080311E259031822AA6
:1024E00029004E08003A0319822A2A00C301043049
:1024F000C400A830C5000430C6000430C7008031D5
:102500001E259031640026004B08013A031DA02DC2
:102510004A08003A0130031D0030F1004908003A32
:102520000130031D0030F0007108F0050319A02AE6
:102530002A0022082900A6002A0023082900A70053
:1025400029002608F0002708F10088315025903135
:1025500070082A00B4007108B5007208B60073084C
:10256000B7000030F4000030F5004830F600853048
:10257000F7003408F0003508F1003608F20037089B
:10258000F30088310423903170082A00B0007108EC
:10259000B1007208B2007308B3003408F4003508C3
:1025A000F5003608F6003708F7000030F00000307C
:1025B000F1004830F2008530F30088310423903177
:1025C0002A003008F4003108F5003208F60033081C
:1025D000F70080315126903170082A00B000710850
:1025E000B1007208B2007308B30028006F08F00051
:1025F0008031D82790312A003008F4003108F500E6
:102600003208F6003308F700803157279031003048
:10261000F4000030F5002030F6008230F7008831F9
:10262000042390311F30F4008530F5006B30F60044
:102630007B30F7008031572790310030F4000030B4
:10264000F5000030F6007F30F700803151269031E0
:102650007008F4007108F5007208F6007308F700BE
:102660000030F0000030F1000030F2007F30F30065
:1026700088310423903170082A00B8007108B9002D
:102680007208BA007308BB003808A8003908A9000E
:102690003A08AA003B08AB002208F0002308F1002A
:1026A00088315025903170082A00B4007108B500B7
:1026B0007208B6007308B7000030F4000030F5006F
:1026C0004830F6008530F7003408F0003508F10096
:1026D0003608F2003708F3008831042390310030C7
:1026E000F4000030F5000030F6008030F700803153
:1026F0005126903170082A00B0007108B1007208AC
:10270000B2007308B3003408F4003508F500360849
:10271000F6003708F7000030F0000030F1004830D4
:10272000F2008530F3008831042390312A0030080C
:10273000F4003108F5003208F6003308F700803164
:10274000512690317008F4007108F5007208F60007
:102750007308F7000030F0000030F1000030F200A4
:102760008130F30088310423903170082A00AC00D6
:102770007108AD007208AE007308AF000030F400BD
:102780000030F5000030F6007F30F7003808F00028
:102790003908F1003A08F2003B08F3008831CE26F0
:1027A00090310130031C0030F00070080319E12B58
:1027B00000302A00A8000030A9000030AA007F30B5
:1027C000AB002A000030F4000030F5000030F600C5
:1027D0007F30F7002C08F0002D08F1002E08F200E1
:1027E0002F08F3008831CE2690310130031C0030D1
:1027F000F00070080319052C00302A00AC000030EE
:10280000AD000030AE007F30AF002A002008F0009D
:102810002108F1008831502590312A002808F40061
:102820002908F5002A08F6002B08F7008031572701
:1028300090312A002C08F4002D08F5002E08F6002F
:102840002F08F7008031572790318831A622903128
:1028500070082A00A4007108A5002808F0002908C3
:10286000F1002A08F2002B08F3002C08F4002D08D0
:10287000F5002E08F6002F08F70080315727903119
:102880000030F4000030F5004830F6008530F700E5
:102890008031572790318831A622903170082A0064
:1028A000A6007108A70080307106F2008030720225
:1028B000031D5C2C64307002031C622C6330A60084
:1028C0000030A70027003608003A031DB62C8030E0
:1028D0002A002506F00080307002031D712C643040
:1028E0002402031C922C05302407F0000030253D03
:1028F000F1007008A4007108A5007008C3007108F9
:10290000C400AF30C5000430C60080314923903187
:1029100029003108A8003208A9003308AA0057305E
:10292000AB00B52C2A002408C3002508C400AF3032
:10293000C5000430C6008031492390312900330896
:10294000203A0319A62C3308A800A82C3030A80080
:102950002E30A9003408203A0319B12C3408AA00FB
:10296000B32C3030AA005730AB00ED2C80302A0059
:102970002506F0008030033A7002031DC12CE730B9
:1029800024020318D82C2408C3002508C400AF3043
:10299000C5000430C6008031492390312900320837
:1029A000A8003308A9003408AA005730AB00ED2C6A
:1029B0002A002408C3002508C400AF30C500043035
:1029C000C60080314923903129003108A80032081F
:1029D000A9003308AA003408AB004E08043A0130BD
:1029E000031D0030F1004E08053A0130031D003090
:1029F000F0007108F00403190C2D04302A00C30004
:102A00004030C400A830C5000430C6000430C70000
:102A100080311E2590313D2D29004E08023A0130AB
:102A2000031D0030F1004E08033A0130031D003051
:102A3000F0007108F00403192B2D2A00C3010D309A
:102A4000C400A830C5000430C6000430C70080317F
:102A50001E2590313D2D29004E08003A03193D2DC9
:102A60002A00C3010C30C400A830C5000430C600E1
:102A70000430C70080311E2590312A002608C3008B
:102A80002708C400AF30C5000430C6008031492398
:102A9000903129003308A8003408A9004E08043AF0
:102AA0000130031D0030F1004E08053A0130031DCE
:102AB0000030F0007108F00403196D2D06302A0073
:102AC000C3004C30C400A830C5000430C60002303A
:102AD000C70080311E259031A02D29004E08023AF2
:102AE0000130031D0030F1004E08033A0130031D90
:102AF0000030F0007108F00403198D2D01302A0018
:102B0000C3000E30C400A830C5000430C600023037
:102B1000C70080311E259031A02D29004E08013AB2
:102B2000031DA02D01302A00C3000D30C400A830C1
:102B3000C5000430C6000230C70080311E25903128
:102B40006400080064002A00210826005006031DC6
:102B5000AC2D4F082A00200603196F2E2A002008EA
:102B60002600CF002A0021082600D00000302A00CD
:102B70002106031DBD2D00302006031DFF2D290059
:102B80004E08043A0130031D0030F1004E08053AAA
:102B90000130031D0030F0007108F0040319DF2D2F
:102BA00002302A00C3004030C400E530C5000030C8
:102BB000C6000430C70080311E259031FB2D29004E
:102BC0004E08003A0319F32D01302A00C3000430E7
:102BD000C400E030C5000030C6000430C7008031BA
:102BE0001E259031FB2D29004E08003A031DFB2DB8
:102BF00022000D178D172600CF01D0016F2E2A005D
:102C00002008C3002108C400AF30C5000430C6004E
:102C100080314923903129003208A8002E30A900C4
:102C20003308AA003408AB004E08043A0130031DF3
:102C30000030F1004E08053A0130031D0030F0006D
:102C40007108F0040319332E02302A00C30040300B
:102C5000C400A830C5000430C6000430C70080316D
:102C60001E2590316F2E29004E08003A0319472E79
:102C700001302A00C3000430C400A830C50004306D
:102C8000C6000430C70080311E2590316F2E290008
:102C90004E08003A031D6F2E8030F00080302A006D
:102CA00021067002031D562E2008963C031C5C2E44
:102CB00022000D138D176F2E8030F00080302A0017
:102CC00021067002031D662E2008FA3C031C6C2EA0
:102CD00020000D138D136F2E20000D178D1364002F
:102CE0000800290067082300910092012900680864
:102CF000230093001513951315150B08F0008B1383
:102D000055309600AA3096009514F01B892E8B132F
:102D10008A2E8B171511951C8E2E8B2E08002600DF
:102D2000CA01C9012900EF0188311D279031260011
:102D300049082900EF00682029004C082A00BC003F
:102D400029004D082A00BD0088316F259031080008
:102D50008F2601302600CC0001302900EF008031A1
:102D6000E7279031FF302900E700E8017126FE30A7
:102D70002900E700E8017126FD302900E700013055
:102D8000E8007126FC302900E700E8017126FB30DD
:102D90002900E700E80171268831002090312600E3
:102DA000CB0122008C130C172900C801C901CA01EC
:102DB000CB012600C701C80129004E08043A0130A2
:102DC000031D0030F1004E08053A0130031D0030AC
:102DD000F0007108F00403191A2F02302A00C30012
:102DE0001030C4005230C5000330C6000830C700A0
:102DF00080311E25903164000D30FB002D30FC0029
:102E0000D730FD00FD0B022FFC0B022FFB0B022F16
:102E10000000000002302A00C3001030C4005B3004
:102E2000C5000330C6000830C70080311E25903130
:102E300064004D2F29004E08003A03194A2F013033
:102E40002A00C300C401A030C5000330C60008300A
:102E5000C70080311E25903164000D30FB002D30FD
:102E6000FC00D730FD00FD0B332FFC0B332FFB0B89
:102E7000332F0000000001302A00C300C401643079
:102E8000C5000330C6000830C70080311E259031D0
:102E900064004D2F22000D178D1710302600CF0033
:102EA0002730D0001030CD002730CE009831982147
:102EB000903108002000F8010830FC00700DF80D7A
:102EC0007408F8020318662FF8070310F00DFC0BC6
:102ED0005E2F080029005408F000F036F036F03676
:102EE000F0360A30F4008031B92090310F302900DB
:102EF0005405F1007108F007080029005408230068
:102F0000910092019513151315141308F000080091
:102F100029003E08013C0318942FAE302A00BC0063
:102F20008831D1259031A52F29003E08013A031D93
:102F3000A52FC101C0012A00CD0180318522903129
:102F40002A00CD0180318522903108002900D3016B
:102F50005208093C0318C52F0A30F4005208F0004B
:102F60005A2770082900D3007008D300D335D33511
:102F7000D335D3350A30F4005208F0005A277808C8
:102F8000F00070082900D304C72F5208D30053085B
:102F9000F00008006400210097121716971117150A
:102FA0009710640023008C010C148C148D012200F6
:102FB0009113931378302100990020008C018D012A
:102FC0008E01403022008C008D018E0103302100E3
:102FD0008C0007308D008E018831EF2790311E1450
:102FE0009E14951324000D148D140D158B130800D9
:102FF000013400340034003401340034003400342F
:1030000064008831212498317008A0007108A10063
:103010000030A11BFF30A200A3008831C0239831EB
:103020007008A4007108A5000030A51BFF30A600A1
:10303000A70028004D08013A031D3F282A00200858
:10304000F0002108F1000330F4000030F500883171
:103050007C22983170082A00BC007108BD008831BC
:10306000EB25983188315025983170082A00A80046
:103070007108A9007208AA007308AB005C282A0036
:103080002008F0002108F1002208F2002308F300D4
:103090000330F400F501F601F7018031BC239831CB
:1030A0008031B727983170082A00A8007108A9005C
:1030B0007208AA007308AB0080302706F000803049
:1030C00023067002031D6E2822082602031D6E28A7
:1030D00021082502031D6E2820082402031C7728DE
:1030E000E730A0000330A100A201A301C1282408F9
:1030F0002007F0002508213DF1002608223DF200BE
:103100002708233DF3006430F400F501F601F701D0
:103110008031BC2398312A002008F4002108F500F2
:103120002208F6002308F7002408F4022508F53BDE
:103130002608F63B2708F73B88319A249831700817
:103140002A00A0007108A1007208A2007308A30061
:103150008030F400803073067402031DB9287208B1
:10316000003C031DB9287108033C031DB9287008F1
:10317000E73C0318C128E730A0000330A100A201FA
:10318000A30127003408F0008031D82798312A00A5
:103190002808F4002908F5002A08F6002B08F70093
:1031A0008031572798310030F4000030F5007A3034
:1031B000F6008830F70088310423983170082A001F
:1031C000A8007108A9007208AA007308AB00F430C7
:1031D000F400FD30F5003430F6007F30F700883120
:1031E0000423983170082A00A8007108A900720809
:1031F000AA007308AB0027003608013A031D2929ED
:103200002A002808F0002908F1002A08F2002B08FB
:10321000F3002808F4002908F5002A08F6002B0816
:10322000F7008031572798310030F4000030F50066
:103230004830F6008430F700883104239831700854
:103240002A00A8007108A9007208AA007308AB0040
:1032500051292A002808F0002908F1002A08F20064
:103260002B08F3002808F4002908F5002A08F600C6
:103270002B08F7008031572798310030F4000030D8
:10328000F5002030F6008130F700883104239831B2
:1032900070082A00A8007108A9007208AA00730823
:1032A000AB002808F0002908F1002A08F2002B08DA
:1032B000F3000030F4000030F5000030F6007E30FE
:1032C000F70080315126983170082A00A800710853
:1032D000A9007208AA007308AB008831A6229831B1
:1032E00070082900CA007108CB0080302A0023062C
:1032F000F00080307002031D872900302202031D78
:10330000872900302102031D872964302002031819
:103310008F29E7302900C8000330C90097292A0007
:1033200020082900C8002A0021082900C900080037
:103330002900ED01EE0164304F02E8000030503BFF
:10334000E900CA01CB01640026006D08003A013093
:10335000031D0030F10027003208013A0130031D3F
:103360000030F0007108F0050319F82900208030C2
:103370004B06F00080307002031DC0290A304A025B
:10338000031CF72926004A082900EF0088311D2771
:103390009831260049082900EF00903168209831C3
:1033A00026004C082900EF008031E72798310130D2
:1033B0002600ED0088319D27983127004408F00051
:1033C0008031D827983127005708F4005808F500B5
:1033D0005908F6005A08F70080315727983188318C
:1033E000A622983170082600EE007108EF00AC2D7F
:1033F00078302900EA00E7016A0867020318532AB7
:1034000020008D18052A7614062A76100D190A2A2E
:1034100003140B2A03107618112A0318112AF61028
:10342000122AF61420000D18172A0314182A031064
:10343000031C1F2A2900511C1F2A7614202A7610EB
:10344000F618262A7618262A0310272A0314031CA6
:10345000332A8831BA27983127003908013A031DE9
:10346000332AB901AC2D002080306E06F000803088
:103470004B067002031D3E2A4A086D020318482AB3
:103480004A08ED004B08EE004808EB004908EC0044
:103490001030FC009430FD00FD0B4C2AFC0B4C2A34
:1034A0000000E70AFC29640080306E06F0008030DE
:1034B0007002031D5D2A64306D02031C7D2A0530F5
:1034C0006D07F00000306E3DF1000A30F40000306E
:1034D000F50090310020983170082900ED00710846
:1034E000EE000A30F4000030F50088317C2298317B
:1034F00070082900ED007108EE006D082700B70084
:1035000029006E082700B800803029006E06F00000
:1035100080307002031D8E2A0A306D020318922A31
:10352000EB01EC016B082A00A00029006C082A00BE
:10353000A1009031A2259831803027003806F00094
:1035400080307002031DA62A0A303702031CEA2AC3
:103550004408003C0318C52A4408F0008031D827ED
:10356000983127005708F4005808F5005908F6006C
:103570005A08F7008031572798318831A6229831B0
:1035800070082600EE007108EF0026006D08003A72
:10359000031DEA2A27003208013A031DE42A260007
:1035A0004A082900EF0088311D2798312600490874
:1035B0002900EF0090316820983126004C0829003E
:1035C000EF008031E727983101302600ED00883187
:1035D0009D279831803029006C06F000803050061D
:1035E0007002031DF52A4F086B020130031C0030E6
:1035F000F000700827003A05F500803026004806E4
:10360000F300803029006C067302031D0A2B6B083F
:10361000260047022600013003180030F300470857
:1036200029006B02F1002600480829006C3BF200DB
:1036300080306906F000803072067002031D222B74
:1036400071086802013003180030F000700873053B
:10365000F40080306C06F3008030260048067302C8
:10366000031D352B470829006B0229000130031880
:103670000030F3006B0826004702F10029006C08B7
:103680002600483BF200803029006906F0008030B7
:1036900072067002031D4E2B710868020130031878
:1036A0000030F0007308F00570087404F100260083
:1036B0004808033A031D5E2BE73047060130031D1F
:1036C0000030F0007108F0047508F00503196B2B49
:1036D00001302700B50020008D18702B7614712B57
:1036E00076100D19752B0314762B031076187C2B8E
:1036F00003187C2BF6107D2BF61420000D18822B5E
:103700000314832B0310031C8A2B2900511C8A2BC2
:1037100076148B2B7610F618912B7618912B0310BC
:10372000922B0314031C9E2B8831BA279831270053
:103730003908013A031D9E2BB901AC2D270037082B
:103740002A00A000270038082A00A10029006B08E1
:103750002A00A20029006C082A00A3009031AC20A6
:10376000983120008D18B62B7614B72B76100D19D2
:10377000BB2B0314BC2B03107618C22B0318C22BCF
:10378000F610C32BF61420000D18C82B0314C92BF8
:103790000310031CD02B2900511CD02B7614D12BE5
:1037A0007610F618D72B7618D72B0310D82B0314C6
:1037B000031CE42B8831BA27983127003908013AD5
:1037C000031DE42BB901AC2D270064003308013A36
:1037D000031DAC2D29004E08043A0130031D0030B2
:1037E000F1004E08053A0130031D0030F000710869
:1037F000F0040319CD2C02302A00C3001030C4009D
:10380000C530C5000330C6000830C70080311E2512
:1038100098310330FB000830FC007730FD00FD0BD1
:103820000F2CFC0B0F2CFB0B0F2C02302A00C300BB
:103830001030C400A930C5000330C6000830C700EE
:1038400080311E2598310B30FB002630FC005D30A6
:10385000FD00FD0B292CFC0B292CFB0B292C000057
:103860000000640002302A00C3001030C400E430BD
:10387000C5000330C6000830C70080311E259831CE
:103880000730FB001730FC006A30FD00FD0B462CB2
:10389000FC0B462CFB0B462C0000640002302A0077
:1038A000C3001030C400DB30C5000330C600083050
:1038B000C70080311E2598310B30FB002630FC00FC
:1038C0005D30FD00FD0B622CFC0B622CFB0B622CAF
:1038D00000000000640002302A00C3001030C40061
:1038E0003B30C5000430C6000830C70080311E25BB
:1038F00098310730FB001730FC006A30FD00FD0BEB
:103900007F2CFC0B7F2CFB0B7F2C00006400023013
:103910002A00C3001030C4003230C5000430C60095
:103920000830C70080311E2598310B30FB0026304F
:10393000FC005D30FD00FD0B9B2CFC0B9B2CFB0B5E
:103940009B2C00000000640002302A00C3001030ED
:10395000C4004430C5000430C6000830C7008031C0
:103960001E2598310330FB000830FC007730FD0045
:10397000FD0BB82CFC0BB82CFB0BB82C02302A002A
:10398000C3001030C4002030C5000430C600083029
:10399000C70080311E2598319B2D29004E08003A22
:1039A00003199B2D01302A00C300C4012930C50032
:1039B0000430C6000830C70080311E25983103301E
:1039C000FB000830FC007730FD00FD0BE52CFC0B04
:1039D000E52CFB0BE52C01302A00C300C401BB30F1
:1039E000C5000330C6000830C70080311E2598315D
:1039F0000B30FB002630FC005D30FD00FD0BFE2C83
:103A0000FC0BFE2CFB0BFE2C0000000064000130C0
:103A10002A00C300C401CE30C5000330C600083000
:103A2000C70080311E2598310730FB001730FC009D
:103A30006A30FD00FD0B1A2DFC0B1A2DFB0B1A2D05
:103A40000000640001302A00C300C4013E30C500FC
:103A50000330C6000830C70080311E2598310B3076
:103A6000FB002630FC005D30FD00FD0B352DFC0B0E
:103A7000352DFB0B352D00000000640001302A00BD
:103A8000C300C401C430C5000030C6000830C70000
:103A900080311E2598310730FB001730FC006A305A
:103AA000FD00FD0B512DFC0B512DFB0B512D00008A
:103AB000640001302A00C300C401BB30C5000030DF
:103AC000C6000830C70080311E2598310B30FB003E
:103AD0002630FC005D30FD00FD0B6C2DFC0B6C2DC9
:103AE000FB0B6C2D00000000640001302A00C300B5
:103AF000C401B230C5000030C6000830C7008031B4
:103B00001E2598310330FB000830FC007730FD00A3
:103B1000FD0B882DFC0B882DFB0B882D01302A0016
:103B2000C300C401CD30C5000030C6000830C70056
:103B300080311E259831640010302600CF002730D8
:103B4000D00029006B082A00A00029006C082A0078
:103B5000A1009031A22598310800002025006E08B0
:103B6000643A0319C62DEE0A803029004306F0009E
:103B700080304B067002031DBF2D4A084202031815
:103B8000C52D4A08C2004B08C300DE2D2500EE01FA
:103B9000290042082A00A000290043082A00A100A9
:103BA000290048082A00A200290049082A00A30089
:103BB0009031AC2098312900C201C30180304B06FE
:103BC000F200803045067202031DE82D44084A02C7
:103BD000013003180030F20080304706F1008030D9
:103BE0004B067102031DF62D4A08460201300318E8
:103BF0000030F1008030F000803047067002031D75
:103C0000032E4608003C013003180030F000710814
:103C1000F0057208F0040319732E640000202500DB
:103C20006E08643A0319272EEE0A803029004306F5
:103C3000F00080304B067002031D202E4A0842021D
:103C40000318262E4A08C2004B08C3003F2E250049
:103C5000EE01290042082A00A000290043082A009A
:103C6000A100290048082A00A200290049082A00CA
:103C7000A3009031AC2098312900C201C3010D305E
:103C80002A00BC000030BD00BE010530BF0001307D
:103C9000C0008031F026983170080319522E01308F
:103CA0002500EF0025006F08013A0130031D0030A8
:103CB0002900E6000D302A00BC000030BD00BE0126
:103CC0000530BF00C0018031F02698312900660818
:103CD000F0050319722E9031A82698312900C801E9
:103CE000C901732EDE2D080003302900E5002600EF
:103CF000C9012900EF019031682098312900650839
:103D00002500EB00AD2500304906031D892E00304B
:103D10004806031D8C2E302F1430F4000030F500BF
:103D20004808F0004908F1009031002098317008EF
:103D300029004807E3007108493DE4006508E200F6
:103D400062081F3C031C292F6208F00025006D0843
:103D5000F4008031B920983170082900EF009031CB
:103D600068209831AD2500304906031DB92E00307A
:103D70004806031DBC2E302F80304906F0008030ED
:103D800064067002031DC62E630848020318272F1D
:103D90001430F4000030F5004808F0004908F10044
:103DA000903100209831700829004807E30071081D
:103DB000493DE4006208F00025006D08F400803100
:103DC000B920983170082600C9002900650825002F
:103DD000EB00803029004906F00080307002031D9E
:103DE000F32E783048020318F62E292F6508620753
:103DF000F2007208E20025006C08003A0130031D51
:103E00000030F1007208093A0130031D0030F00063
:103E10007108F0050319102F08302900E200262F41
:103E200025006C08003A0130031D0030F100290024
:103E30006208113A0130031D0030F0007108F005EE
:103E40000319262F1030E2000430E500282F292F17
:103E5000A02E260049082900EF00903168209831F3
:103E6000080003302900E100DD0161082400EF00B3
:103E700003302900DE001430F4000030F50048085B
:103E8000F0004908F10090310020983170082900B5
:103E90004807DF007108493DE000DC015C081F3C79
:103EA000031CDD2F5C08F00025006908F400803158
:103EB000B920983170082900EF0088311D2798310A
:103EC0007426AD2500304906031D682F00304806D2
:103ED000031D6B2FFB2F80304906F00080306006F9
:103EE0007002031D752F5F0848020318DB2F143082
:103EF000F4000030F5004808F0004908F100903166
:103F000000209831700829004807DF007108493DFA
:103F1000E0005C08F00025006908F4008031B92059
:103F2000983170082600CA0049082900DD006108A0
:103F30002400EF0025006B082900DE0080304906D0
:103F4000F00080307002031DA72F7830480203185C
:103F5000AA2FDD2F61085C07F2007208DC00250043
:103F60006A08003A0130031D0030F1007208093A76
:103F70000130031D0030F0007108F0050319C42F53
:103F800008302900DC00DA2F25006A08003A0130E9
:103F9000031D0030F10029005C08113A0130031DB7
:103FA0000030F0007108F0050319DA2F1030DC0042
:103FB0000430E100DC2FDD2F4E2F5D082600C90004
:103FC0004A082900EF0088311D279831260049084A
:103FD0002900EF0090316820983129005E08250003
:103FE000EB003430FC00F130FD00FD0BF52FFC0B35
:103FF000F52F0000000008006C3400342E3400342B
:1040000024006F08F00025006908F4008031B92011
:10401000A03170082900DC00700826004A07F4006F
:1040200074082900DE000530F20025006908F00060
:10403000F101720803192028F035F10DFF3E1A280E
:1040400001307002F2000030713BF30080307306E3
:10405000F00080307002031D2F28740872020318CC
:104060003D280530F00069082900DE0070080319BA
:104070003C28DE35FF3E3728DE0326004A082900AB
:104080005C02031849285C0826004A022900DF0068
:104090004A28DF015F082600CA0029005F08EF00F8
:1040A00088311D27A0319831AD25A0310030490657
:1040B000031D5C2800304806031D5F28DD284808E2
:1040C000E0004908E1002500690829005F07DD00DC
:1040D0005D085E02031CD6285D08EF0088311D27AD
:1040E000A0319831AD25A03100304906031D7A2852
:1040F00000304806031D7D28DD2880304906F00089
:10410000803061067002031D872860084802031C86
:1041100096283430FC00F130FD00FD0B8D28FC0B9F
:104120008D28000000009831AD25A031803049066F
:10413000F000803061067002031DA028600848026C
:10414000031CAF283430FC00F130FD00FD0BA62825
:10415000FC0BA628000000009831AD25A03180306E
:104160004906F000803061067002031DB92860081E
:1041700048020318D0284808E0004908E1005D081B
:104180002600CA00803029004906F0008030700205
:10419000031DCC28783048020318CF28D628D12810
:1041A000D628250069082900DD07682826004A0866
:1041B0002900EF0088311D27A031080025006B0879
:1041C000F0006D08F4008031B920A031700829009A
:1041D000DC00700826004907F40074082900DE009E
:1041E0000530F20025006D08F000F1017208031996
:1041F000FD28F035F10DFF3EF72801307002F20086
:104200000030713BF30080307306F00080307002A4
:10421000031D0C297408720203181A290530F000D6
:104220006D082900DE00700803191929DE35FF3EEC
:104230001429DE032600490829005C0203182629F8
:104240005C08260049022900DF002729DF015F08FA
:104250002600C90029005F08EF0090316820A031D6
:104260009831AD25A03100304906031D39290030B1
:104270004806031D3C29BA294808E0004908E10026
:1042800025006D0829005F07DD005D085E02031C44
:10429000B3295D08EF0090316820A0319831AD2539
:1042A000A03100304906031D572900304806031D80
:1042B0005A29BA2980304906F00080306106700220
:1042C000031D642960084802031C73293430FC0074
:1042D000F130FD00FD0B6A29FC0B6A29000000008B
:1042E0009831AD25A03180304906F000803061065C
:1042F0007002031D7D2960084802031C8C2934309C
:10430000FC00F130FD00FD0B8329FC0B832900002C
:1043100000009831AD25A03180304906F000803092
:1043200061067002031D9629600848020318AD2932
:104330004808E0004908E1005D082600C900803017
:1043400029004906F00080307002031DA929783049
:1043500048020318AC29B329AE29B32925006D08FA
:104360002900DD074529260049082900EF00903182
:104370006820A031080029004808D6004908D70065
:1043800098313127A031003029004906031DCA2980
:1043900000304806031DD02990318F26A0311B2BF9
:1043A0009831AD25A03180304906F0008030700290
:1043B000031DDC29783048020318DF291B2B00205D
:1043C000003029004906031DE72900304806031D77
:1043D000ED2990318F26A0311B2B9831AD25A031CE
:1043E00080304906F00080307002031DF9297830D2
:1043F00048020318FC291B2BDE2000302900490647
:10440000031D042A00304806031D0A2A90318F2616
:10441000A0311B2B9831AD25A03180304906F0002A
:1044200080307002031D162A783048020318192ABA
:104430001B2B80304906F10080307102031D222AB7
:10444000C8304802013003180030F10080304906BE
:10445000F000803057067002031D302A56084802CB
:10446000013003180030F00070087105F3004808AF
:104470005602F1004908573BF2008030F0008030CE
:1044800072067002031D462A7108643C013003184D
:104490000030F0007308F00503194F2A1B2B480861
:1044A000D6004908D70026004A082900D800D901BB
:1044B000260049082900DA00DB0126004C08013AF1
:1044C000031D642ACC01662A0130CC0090318F266E
:1044D000A03126004C082900EF008031E727A031E9
:1044E0000230FB000430FC00BA30FD00FD0B762AE0
:1044F000FC0B762AFB0B762A00009831AD25A03103
:1045000080304906F00080307002031D892A78301F
:10451000480203188C2A1B2B98313127A031003018
:1045200029004906031D962A00304806031D9C2ACF
:1045300090318F26A0311B2B9831AD25A0318030D2
:104540004906F00080307002031DA82A7830480226
:104550000318AB2A1B2B0020003029004906031D3D
:10456000B32A00304806031DB92A90318F26A031A6
:104570001B2B9831AD25A03180304906F0008030EA
:104580007002031DC52A783048020318C82A1B2B65
:10459000DE20003029004906031DD02A00304806DD
:1045A000031DD62A90318F26A0311B2B9831AD25C3
:1045B000A03180304906F00080307002031DE22AED
:1045C000783048020318E52A1B2B80305706F0008C
:1045D000803049067002031DEF2A4808560203186E
:1045E0001A2B26004C08013A031DF82ACC01FA2A9E
:1045F0000130CC004C082900EF008031E727A031C2
:10460000290058082600CA0029005A082600C900B7
:1046100029005808EF0088311D27A03126004908DD
:104620002900EF0090316820A03129005608C80009
:104630005708C9006400080064002500EE01290045
:10464000C201C3012500EF019831AD25A0318030B2
:104650004906F00080307002031D302B6E30480296
:104660000318332B042C90318F26A03120006F08C3
:10467000003A031D3E2B88310020A0310230FB00A0
:104680000430FC00BA30FD00FD0B442BFC0B442B26
:10469000FB0B442B00009831AD25A0314808A60043
:1046A0004908A70080304906F00080307002031DE1
:1046B0005B2B6E30480203185E2B042C8030F10017
:1046C000803025067102031D672B24086E3C0130E3
:1046D00003180030F10080302506F00080304906D4
:1046E0007002031D752B48082402013003180030A6
:1046F000F0007108F00503197E2B042CBB2100305B
:1047000029004906031D862B00304806031D8C2B0B
:1047100090318F26A031042C803029004906F0000A
:1047200080307002031D962B783048020318992BB5
:10473000042C20005C08053A0130031D0030F10014
:104740005B08053A0130031D0030F0007108F005E8
:104750000319AB2B042C5B08053C0318B72B250071
:1047600069082400EF0001302500E90000208030B6
:1047700029004906F00080307002031DC12B7830FB
:1047800048020318C42B042C20005C08053C0318C5
:10479000CF2B25006D08EB000130ED00DE2020005E
:1047A0005B08053A031DD82B01302500E900E92BF1
:1047B00020005B08063A031DE12B02302500E900CA
:1047C000E92B20005B08073A031DE92B0430250084
:1047D000E90020005C08053A031DF22B013025009A
:1047E000ED00032C20005C08063A031DFB2B023071
:1047F0002500ED00032C20005C08073A031D032C64
:1048000004302500ED006400080080313E20A03116
:10481000290037082A00DC0080310320A0312A005B
:10482000DC0180310320A031AE302A00DC00803171
:104830000320A03129003E08023A0130031D003058
:10484000F1003E08033A0130031D0030F00071080A
:10485000F0040319E12CD5302A00DC00803103205C
:10486000A03180302A00DC0080310320A031A83044
:104870002A00DC0080310320A0313F302A00DC0018
:1048800080310320A031D3302A00DC0080310320A6
:10489000A03129003E08023A031D552C36082A0093
:1048A000DC0080310320A0315D2C290036081F3E3A
:1048B0002A00DC0080310320A03140302A00DC00D7
:1048C00080310320A0318D302A00DC0080310320AC
:1048D000A03114302A00DC0080310320A031813067
:1048E0002A00DC0080310320A031B4302A00DC0033
:1048F00080310320A031D9302A00DC008031032030
:10490000A03122302A00DC0080310320A031203089
:104910002A00DC0080310320A03102302A00DC00B4
:1049200080310320A03121302A00DC0080310320B7
:10493000A0312A00DC0180310320A0317F302A0021
:10494000DC0080310320A0312E302A00DC008031D1
:104950000320A03129003E08023A031DBC2CA030E0
:104960002A00DC0080310320A031C0302A00DC00A6
:1049700080310320A031C82CA1302A00DC00803116
:104980000320A031C8302A00DC0080310320A03190
:10499000DA302A00DC0080310320A03102302A0006
:1049A000DC0080310320A031DB302A00DC008031C4
:1049B0000320A03140302A00DC0080310320A031E8
:1049C000892DD5302A00DC0080310320A0318030D1
:1049D0002A00DC0080310320A031A8302A00DC004E
:1049E00080310320A0313F302A00DC0080310320D9
:1049F000A031D3302A00DC0080310320A03129000F
:104A000036082A00DC0080310320A03140302A0023
:104A1000DC0080310320A0318D302A00DC008031A1
:104A20000320A03114302A00DC0080310320A031A3
:104A300081302A00DC0080310320A031FF302A00C1
:104A4000DC0080310320A031D9302A00DC00803125
:104A50000320A031F1302A00DC0080310320A03196
:104A600020302A00DC0080310320A03102302A00EF
:104A7000DC0080310320A03121302A00DC008031AD
:104A80000320A0312A00DC0180310320A0317F30D7
:104A90002A00DC0080310320A0312E302A00DC0007
:104AA00080310320A03129003E08043A031D652D02
:104AB000A0302A00DC0080310320A031C0302A0061
:104AC000DC0080310320A031712DA1302A00DC00F0
:104AD00080310320A031C8302A00DC00803103205F
:104AE000A031DA302A00DC0080310320A0311230FE
:104AF0002A00DC0080310320A031DB302A00DC00FA
:104B000080310320A03140302A00DC0080310320B6
:104B1000A031A4302A00DC0080310320A031A6306F
:104B20002A00DC0080310320A0318031D120A03167
:104B30000330FB000830FC007730FD00FD0B9E2D9C
:104B4000FC0B9E2DFB0B9E2D80313E20A0312900B9
:104B500037082A00DC0080310320A03140302A00D1
:104B6000DC0080310320A03129003E08023A0130E8
:104B7000031D0030F1003E08033A0130031D0030F0
:104B8000F0007108F0040319E32DD5015508033C2A
:104B9000031CE22D55082A00D700D80180315D2082
:104BA000A0312900D4012900803054020318DF2DE0
:104BB000D40A2A00DC0180310320A031D32D290042
:104BC000D50AC62D002ED5015508073C031C002E22
:104BD00055082A00D700D80180315D20A031290076
:104BE000D4012900803054020318FD2DD40A2A0074
:104BF000DC0180310320A031F12D2900D50AE42DFC
:104C00008031D120A031AF302A00BC008831D125BD
:104C1000A0310800640029004E08043A0130031D49
:104C20000030F1004E08053A0130031D0030F0005D
:104C30007108F00403192B2E02302A00C300403003
:104C4000C400DA30C5000230C6000430C70080312D
:104C50001E25A031422E29004E08003A03193F2E8E
:104C600001302A00C3000430C4006A30C50002309D
:104C7000C6000430C70080311E25A031422E22001C
:104C80000D178D171C2329004E08003A031D6B2EAB
:104C90008030F000803049067002031D512E480814
:104CA000963C031C572E22000D138D176A2E803060
:104CB000F0008030290049067002031D612E48086B
:104CC000FA3C031C672E20000D138D136A2E200062
:104CD0000D178D13802E26004B08003A0130031D5E
:104CE0000030F10020006F08003A0130031D003051
:104CF000F0007108F0040319802E88310020A031E3
:104D0000FF302900E700260049082900E80090311B
:104D10007126A031FE302900E70026004A0829004C
:104D2000E80090317126A031FD302900E70026000F
:104D30004C082900E80090317126A031FC30290090
:104D4000E7000030F4000130F5002608F0002708E5
:104D5000F10090310020A03170082900E800903166
:104D60007126A031FB302900E7000030F40001304B
:104D7000F5002608F0002708F10090310020A0314E
:104D80007808F0007908F10070082900E8009031F7
:104D90007126A03110302600CF002730D00010300F
:104DA000CD002730CE0098319821A0312900480845
:104DB0002600C700290049082600C80022008C13DD
:104DC0000C176400080029004E08043A0130031D46
:104DD0000030F1004E08053A0130031D0030F000AC
:104DE0007108F0040319022F2A00C3010A30C4001D
:104DF000A930C5000130C6000930C70080311E252A
:104E0000A031142F29004E08003A0319142F2A004C
:104E1000C3010330C400C730C5000130C6000930EB
:104E2000C70080311E25A03164000B30FB00263006
:104E3000FC005D30FD00FD0B1B2FFC0B1B2FFB0B43
:104E40001B2F0000000064000B30FB002630FC002C
:104E50005D30FD00FD0B2A2FFC0B2A2FFB0B2A2FA8
:104E60000000000064000B30FB002630FC005D30C9
:104E7000FD00FD0B392FFC0B392FFB0B392F0000E8
:104E8000000064000B30FB002630FC005D30FD00AC
:104E9000FD0B482FFC0B482FFB0B482F0000000098
:104EA000640029004E08043A0130031D0030F1006F
:104EB0004E08053A0130031D0030F0007108F0047F
:104EC0000319702F2A00C3010A30C400BD30C50089
:104ED0000130C6000930C70080311E25A031822F65
:104EE00029004E08003A0319822F2A00C30103301B
:104EF000C400B330C5000130C6000930C70080319E
:104F00001E25A03190318F26A03101302600CC0023
:104F100001302900EF008031E727A031FF30290060
:104F2000E700260049082900E80090317126A031E9
:104F3000FE302900E70026004A082900E8009031E9
:104F40007126A031FD302900E70026004C08290019
:104F5000E80090317126A03129004E08043A013052
:104F6000031D0030F1004E08053A0130031D0030EA
:104F7000F0007108F0040319CB2F2A00C301703030
:104F8000C4006D30C5000130C6000130C70080315B
:104F90001E25A031DD2F29004E08003A0319DD2F10
:104FA0002A00C3010830C400EC30C5000130C6003F
:104FB0000130C70080311E25A03101302000AB0038
:104FC000A8310020A031080012001E00F003031DCC
:104FD000E42FF103031DE42F080020342034203493
:104FE00020342034203420342034003401346C3414
:104FF00000340134633400346C3400346C340034D5
:10500000640029004E08043A0130031D0030F1000D
:105010004E08053A0130031D0030F0007108F0041D
:105020000319F22820002B08003A031DA4282A00A7
:10503000C3011630C400E130C5000230C60007309D
:10504000C70080311E25A83102302A00C300063077
:10505000C4003430C5000330C6000930C7008031B9
:105060001E25A83104302A00C3001030C4002B30A4
:10507000C5000330C6000830C70080311E25A831A6
:1050800006302A00C3000430C4002030C5000330BD
:10509000C6000A30C70080311E25A83164000D30DB
:1050A000FB002D30FC00D730FD00FD0B5528FC0B1C
:1050B0005528FB0B55280000000064000B30FB0056
:1050C0002630FC005D30FD00FD0B6428FC0B6428DD
:1050D000FB0B64280000000064002A00C3011030AC
:1050E000C400AB30C5000230C6000830C7008031B4
:1050F0001E25A83102302A00C3000430C400A030AD
:10510000C5000230C6000A30C70080311E25A83114
:1051100004302A00C3001030C4006130C5000230E2
:10512000C6000830C70080311E25A83106302A008D
:10513000C3000430C400B430C5000230C6000A30D9
:10514000C70080311E25A8310430FB000C30FC0064
:105150003330FD00FD0BAA28FC0BAA28FB0BAA2864
:105160000000000027003608013A031DC5282A0068
:10517000C3011030C400D130C5000230C600083071
:10518000C70080311E25A831D2282A00C301103063
:10519000C400C830C5000230C6000830C7008031E6
:1051A0001E25A83102302A00C3001030C400BF30D1
:1051B000C5000230C6000830C70080311E25A83166
:1051C00027003A080319F1282A00C3017030C400EF
:1051D000EE30C5000130C6000130C70080311E2509
:1051E000A831D32929004E08003A0319D3292000F9
:1051F0002B08003A031D89292A00C3010430C4008A
:10520000E430C5000130C6000730C70080311E25DC
:10521000A83101302A00C3000330C400DA30C500D1
:105220000130C6000930C70080311E25A831640056
:105230000F30FB003530FC005130FD00FD0B1E2906
:10524000FC0B1E29FB0B1E2964000B30FB002630D3
:10525000FC005D30FD00FD0B2B29FC0B2B29FB0B0B
:105260002B290000000064002A00C3010430C400A0
:10527000D130C5000130C6000830C70080311E257E
:10528000A83101302A00C3000330C4002030C5001B
:105290000230C6000A30C70080311E25A8316400E4
:1052A0000D30FB002D30FC00D730FD00FD0B5629E2
:1052B000FC0B5629FB0B56290000000064000B3044
:1052C000FB002630FC005D30FD00FD0B6529FC0B6A
:1052D0006529FB0B65290000000064002A00C3015A
:1052E0000430C4003F30C5000230C6000830C7009B
:1052F00080311E25A83101302A00C3000330C400CC
:105300003430C5000230C6000A30C70080311E2587
:10531000A8310430FB000C30FC003330FD00FD0BE5
:105320008F29FC0B8F29FB0B8F2900000000270021
:105330003608013A031DA9292A00C301C4012B30F4
:10534000C5000230C6000830C70080311E25A831D4
:10535000B5292A00C301C401A030C5000130C60030
:105360000830C70080311E25A83101302A00C30053
:10537000C4016430C5000130C6000830C700803168
:105380001E25A83127003A080319D3292A00C30192
:105390000830C4006230C5000130C6000130C700CB
:1053A00080311E25A831640088310020A831080012
:1053B00007302900D40090317D27A83170082900DA
:1053C000B6000830D40090317D27A831700829003C
:1053D000B9003E08013C0318F129A0310524A83189
:1053E000642A29003E08013A031D642A0130C100E5
:1053F000C00103302A00CD0080318522A8311A3047
:10540000FC00F830FD00FD0B032AFC0B032A000012
:1054100003302A00CD0080318522A8310630FC00FF
:105420003030FD00FD0B122AFC0B122A0000033065
:105430002A00CD0080318522A83102302A00CD001B
:1054400080318522A83102302A00CD0080318522AA
:10545000A83108302A00CD0080318522A8312A00E9
:10546000CD0180318522A83108302A00CD0080315D
:105470008522A8312A00CD0180318522A831013052
:105480002A00CD0080318522A8311A30FC00F83086
:10549000FD00FD0B492AFC0B492A00002A00CD0122
:1054A00080318522A83106302A00CD008031852246
:1054B000A8312A00CD0180318522A8310C302A0084
:1054C000CD0080318522A831080028006F082A000D
:1054D000C300C401AF30C5000430C6008031492389
:1054E000A8310A3028006F02031C7A2A29003308E9
:1054F000A8007D2A29003030A8002E30A9003408E9
:10550000AA004E08043A0130031D0030F1004E0895
:10551000053A0130031D0030F0007108F004031952
:10552000A02A04302A00C3000630C400A830C500F9
:105530000430C6000330C70080311E25A831B22ACE
:1055400029004E08003A0319B22A01302A00C3008C
:10555000C401A830C5000430C6000330C700803144
:105560001E25A83108000D302A00BC000030BD0007
:10557000BE013230BF00C0018031F026A831700872
:1055800003196B2B0630FB001330FC00AD30FD001F
:10559000FD0BC82AFC0BC82AFB0BC82A0000000020
:1055A000640020000D1CE72A26004C08003A031D69
:1055B000DC2A0130CC00DD2ACC014C082900EF00A8
:1055C0008031E727A83188310020A831572B2800E7
:1055D0005008013A031DEE2AD001F02A0130D00014
:1055E0005008013A031D262B29004E08043A0130C9
:1055F000031D0030F1004E08053A0130031D003054
:10560000F0007108F0040319132B2A00C301703055
:10561000C4004E30C5000430C6000130C7008031E0
:105620001E25A831252B29004E08003A0319252BE9
:105630002A00C3010830C4005330C5000430C6003E
:105640000130C70080311E25A831572B29004E0894
:10565000043A0130031D0030F1004E08053A0130D4
:10566000031D0030F0007108F0040319452B2A00D7
:10567000C3017030C4005130C5000430C600013091
:10568000C70080311E25A831572B29004E08003A4B
:105690000319572B2A00C3010830C400EE30C5009F
:1056A0000330C6000130C70080311E25A8310D30FF
:1056B0002A00BC000030BD00BE013230BF00C00176
:1056C0008031F026A831700803196B2B983198218E
:1056D000A8316400572B0D302A00BC000030BD00FB
:1056E0000230BE003230BF00C0018031F026A83148
:1056F00070080319F12B640020000D19F12B0530FF
:10570000F20025006908F000F101720803198C2BE2
:10571000F035F10DFF3E862B01307002F2000030B3
:10572000713BF3008030F000803073067002031D7F
:105730009C2B720826004A02013003180030F0004A
:1057400028005008F0050319AE2B2600CA0A4A08A3
:105750002900EF0088311D27A831E12B28005008CF
:105760000130031D0030F4000530F2002500690807
:10577000F000F10172080319C12BF035F10DFF3E65
:10578000BB2B01307002F2000030713BF30080301F
:10579000F000803073067002031DD12B72082600C2
:1057A0004902013003180030F0007408F0050319B5
:1057B000E12B2600C90A49082900EF009031682032
:1057C000A83188310020A83198319821A8319C3027
:1057D000FC00D730FD00FD0BEB2BFC0BEB2B64002A
:1057E0007C2B0D302A00BC000030BD000130BE0013
:1057F0003230BF00C0018031F026A83127006D088B
:10580000003A0130031D0030F1007108F005031962
:105810004A2C640020008D184A2C26004A08003CBF
:10582000013003180030F00028005008F00503197B
:10583000222C2600CA034A082900EF0088311D27C0
:10584000A8313A2C280050080130031D0030F10027
:1058500026004908003C013003180030F0007108B0
:10586000F00503193A2CC90349082900EF009031CB
:105870006820A83188310020A83198319821A831BA
:105880009C30FC00D730FD00FD0B442CFC0B442C5D
:1058900064000A2C08002900D40190317D27A8312A
:1058A00070082900B7000130D40090317D27A8315D
:1058B00070082900BE007008003A031D662C210004
:1058C0000D138D1322000D178D176C2C21000D1751
:1058D0008D1722000D138D1308006400013029007C
:1058E000D40090317D27A83170082900CE00023005
:1058F000D40090317D27A8317008013A031D832C14
:1059000001302700BA0003302900D40090317D27F0
:10591000A83170082900D40090316A27A831700896
:10592000CC00CD010430D40090317D27A83170081F
:105930002900D40090316A27A8310A30F400803160
:10594000B920A83170082900CF007108D0000530B7
:10595000D40090317D27A83170082900D4009031FF
:105960006A27A8310A30F4008031B920A8317008C4
:105970002900C4007108C5000630D40090317D278D
:10598000A83170082900D40090316A27A8310A3064
:10599000F4008031B920A83170082900C6007108D0
:1059A000C7000930D40090317D27A8317008290044
:1059B000D40090316A27A8310A30F4008031B92030
:1059C000A83170082900A4007108A5000A30D4008D
:1059D00090317D27A83170082000DB000B302900B2
:1059E000D40090317D27A83170082500EA000C30E2
:1059F0002900D40090317D27A83170082000DC00F8
:105A00000D302900D40090317D27A8317008250081
:105A1000EC000E302900D40090317D27A8317008A9
:105A20002800CD000F302900D40090317D27A83107
:105A300070082600D100640010302900D400903195
:105A40007D27A83170082900D40090316A27A83139
:105A50006430F4008031B920A83170082900D200E8
:105A60007108D3001130D40090317D27A83170081F
:105A70002900D40090316A27A83170085207280005
:105A8000E30000302900533D2800E40012302900D3
:105A9000D40090317D27A83170082900D4009031BE
:105AA0006A27A8316430F4008031B920A831700829
:105AB0002900D2007108D3001330D40090317D2723
:105AC000A83170082900D40090316A27A8317008E5
:105AD00052072800E10000302900533D2800E20071
